{
  "_format": "hh-sol-artifact-1",
  "contractName": "TaskManager",
  "sourceName": "contracts/TaskManager.sol",
  "abi": [
    {
      "inputs": [],
      "stateMutability": "nonpayable",
      "type": "constructor"
    },
    {
      "inputs": [
        {
          "internalType": "address",
          "name": "owner",
          "type": "address"
        }
      ],
      "name": "OwnableInvalidOwner",
      "type": "error"
    },
    {
      "inputs": [
        {
          "internalType": "address",
          "name": "account",
          "type": "address"
        }
      ],
      "name": "OwnableUnauthorizedAccount",
      "type": "error"
    },
    {
      "anonymous": false,
      "inputs": [
        {
          "indexed": true,
          "internalType": "address",
          "name": "previousOwner",
          "type": "address"
        },
        {
          "indexed": true,
          "internalType": "address",
          "name": "newOwner",
          "type": "address"
        }
      ],
      "name": "OwnershipTransferred",
      "type": "event"
    },
    {
      "anonymous": false,
      "inputs": [
        {
          "indexed": false,
          "internalType": "uint256",
          "name": "taskId",
          "type": "uint256"
        },
        {
          "indexed": false,
          "internalType": "string",
          "name": "title",
          "type": "string"
        },
        {
          "indexed": false,
          "internalType": "string",
          "name": "description",
          "type": "string"
        },
        {
          "indexed": false,
          "internalType": "address",
          "name": "owner",
          "type": "address"
        }
      ],
      "name": "TaskAdded",
      "type": "event"
    },
    {
      "anonymous": false,
      "inputs": [
        {
          "indexed": false,
          "internalType": "uint256",
          "name": "taskId",
          "type": "uint256"
        },
        {
          "indexed": false,
          "internalType": "address",
          "name": "owner",
          "type": "address"
        }
      ],
      "name": "TaskCompleted",
      "type": "event"
    },
    {
      "anonymous": false,
      "inputs": [
        {
          "indexed": false,
          "internalType": "uint256",
          "name": "taskId",
          "type": "uint256"
        },
        {
          "indexed": false,
          "internalType": "address",
          "name": "owner",
          "type": "address"
        }
      ],
      "name": "TaskDeleted",
      "type": "event"
    },
    {
      "anonymous": false,
      "inputs": [
        {
          "indexed": false,
          "internalType": "uint256",
          "name": "taskId",
          "type": "uint256"
        },
        {
          "indexed": false,
          "internalType": "string",
          "name": "title",
          "type": "string"
        },
        {
          "indexed": false,
          "internalType": "string",
          "name": "description",
          "type": "string"
        },
        {
          "indexed": false,
          "internalType": "address",
          "name": "owner",
          "type": "address"
        }
      ],
      "name": "TaskUpdated",
      "type": "event"
    },
    {
      "inputs": [
        {
          "internalType": "string",
          "name": "_title",
          "type": "string"
        },
        {
          "internalType": "string",
          "name": "_description",
          "type": "string"
        }
      ],
      "name": "addTask",
      "outputs": [],
      "stateMutability": "nonpayable",
      "type": "function"
    },
    {
      "inputs": [
        {
          "internalType": "uint256",
          "name": "_taskId",
          "type": "uint256"
        }
      ],
      "name": "deleteTask",
      "outputs": [],
      "stateMutability": "nonpayable",
      "type": "function"
    },
    {
      "inputs": [
        {
          "internalType": "uint256",
          "name": "_taskId",
          "type": "uint256"
        },
        {
          "internalType": "string",
          "name": "_title",
          "type": "string"
        },
        {
          "internalType": "string",
          "name": "_description",
          "type": "string"
        }
      ],
      "name": "editTask",
      "outputs": [],
      "stateMutability": "nonpayable",
      "type": "function"
    },
    {
      "inputs": [],
      "name": "getAllTasks",
      "outputs": [
        {
          "components": [
            {
              "internalType": "uint256",
              "name": "id",
              "type": "uint256"
            },
            {
              "internalType": "string",
              "name": "title",
              "type": "string"
            },
            {
              "internalType": "string",
              "name": "description",
              "type": "string"
            },
            {
              "internalType": "bool",
              "name": "completed",
              "type": "bool"
            },
            {
              "internalType": "address",
              "name": "owner",
              "type": "address"
            }
          ],
          "internalType": "struct TaskManager.Task[]",
          "name": "",
          "type": "tuple[]"
        }
      ],
      "stateMutability": "view",
      "type": "function"
    },
    {
      "inputs": [
        {
          "internalType": "uint256",
          "name": "_taskId",
          "type": "uint256"
        }
      ],
      "name": "markTaskCompleted",
      "outputs": [],
      "stateMutability": "nonpayable",
      "type": "function"
    },
    {
      "inputs": [],
      "name": "owner",
      "outputs": [
        {
          "internalType": "address",
          "name": "",
          "type": "address"
        }
      ],
      "stateMutability": "view",
      "type": "function"
    },
    {
      "inputs": [],
      "name": "renounceOwnership",
      "outputs": [],
      "stateMutability": "nonpayable",
      "type": "function"
    },
    {
      "inputs": [],
      "name": "taskCount",
      "outputs": [
        {
          "internalType": "uint256",
          "name": "",
          "type": "uint256"
        }
      ],
      "stateMutability": "view",
      "type": "function"
    },
    {
      "inputs": [
        {
          "internalType": "uint256",
          "name": "",
          "type": "uint256"
        }
      ],
      "name": "tasks",
      "outputs": [
        {
          "internalType": "uint256",
          "name": "id",
          "type": "uint256"
        },
        {
          "internalType": "string",
          "name": "title",
          "type": "string"
        },
        {
          "internalType": "string",
          "name": "description",
          "type": "string"
        },
        {
          "internalType": "bool",
          "name": "completed",
          "type": "bool"
        },
        {
          "internalType": "address",
          "name": "owner",
          "type": "address"
        }
      ],
      "stateMutability": "view",
      "type": "function"
    },
    {
      "inputs": [
        {
          "internalType": "address",
          "name": "newOwner",
          "type": "address"
        }
      ],
      "name": "transferOwnership",
      "outputs": [],
      "stateMutability": "nonpayable",
      "type": "function"
    }
  ],
  "bytecode": "0x60806040523480156200001157600080fd5b5033600073ffffffffffffffffffffffffffffffffffffffff168173ffffffffffffffffffffffffffffffffffffffff1603620000885760006040517f1e4fbdf70000000000000000000000000000000000000000000000000000000081526004016200007f9190620001a9565b60405180910390fd5b6200009981620000a060201b60201c565b50620001c6565b60008060009054906101000a900473ffffffffffffffffffffffffffffffffffffffff169050816000806101000a81548173ffffffffffffffffffffffffffffffffffffffff021916908373ffffffffffffffffffffffffffffffffffffffff1602179055508173ffffffffffffffffffffffffffffffffffffffff168173ffffffffffffffffffffffffffffffffffffffff167f8be0079c531659141344cd1fd0a4f28419497f9722a3daafe3b4186f6b6457e060405160405180910390a35050565b600073ffffffffffffffffffffffffffffffffffffffff82169050919050565b6000620001918262000164565b9050919050565b620001a38162000184565b82525050565b6000602082019050620001c0600083018462000198565b92915050565b61189680620001d66000396000f3fe608060405234801561001057600080fd5b506004361061009d5760003560e01c80638d977672116100665780638d9776721461011e5780638da5cb5b14610152578063b37b100014610170578063b6cb58a51461018c578063f2fde38b146101aa5761009d565b80620b2bda146100a25780634103c62e146100be578063560f3192146100da578063715018a6146100f6578063779900b414610100575b600080fd5b6100bc60048036038101906100b79190610d98565b6101c6565b005b6100d860048036038101906100d39190610f0b565b6102d4565b005b6100f460048036038101906100ef9190610d98565b610402565b005b6100fe61055b565b005b61010861056f565b60405161011591906111bf565b60405180910390f35b61013860048036038101906101339190610d98565b6107dd565b604051610149959493929190611258565b60405180910390f35b61015a610950565b60405161016791906112b9565b60405180910390f35b61018a600480360381019061018591906112d4565b610979565b005b610194610acb565b6040516101a1919061134c565b60405180910390f35b6101c460048036038101906101bf9190611393565b610ad1565b005b3373ffffffffffffffffffffffffffffffffffffffff166001600083815260200190815260200160002060030160019054906101000a900473ffffffffffffffffffffffffffffffffffffffff1673ffffffffffffffffffffffffffffffffffffffff161461026a576040517f08c379a00000000000000000000000000000000000000000000000000000000081526004016102619061140c565b60405180910390fd5b600180600083815260200190815260200160002060030160006101000a81548160ff0219169083151502179055507fbb5889c77948badf90e8a5c73d55265e5f5d6e4837a79a78c5669691b897faed81336040516102c992919061142c565b60405180910390a150565b3373ffffffffffffffffffffffffffffffffffffffff166001600085815260200190815260200160002060030160019054906101000a900473ffffffffffffffffffffffffffffffffffffffff1673ffffffffffffffffffffffffffffffffffffffff1614610378576040517f08c379a000000000000000000000000000000000000000000000000000000000815260040161036f9061140c565b60405180910390fd5b8160016000858152602001908152602001600020600101908161039b9190611661565b50806001600085815260200190815260200160002060020190816103bf9190611661565b507fa5099578a7eadbf9c7a6bd9f19ce1e97e696a45bc6da1f24ddc00ff49428b694838383336040516103f59493929190611733565b60405180910390a1505050565b3373ffffffffffffffffffffffffffffffffffffffff166001600083815260200190815260200160002060030160019054906101000a900473ffffffffffffffffffffffffffffffffffffffff1673ffffffffffffffffffffffffffffffffffffffff16146104a6576040517f08c379a000000000000000000000000000000000000000000000000000000000815260040161049d9061140c565b60405180910390fd5b600160008281526020019081526020016000206000808201600090556001820160006104d29190610caa565b6002820160006104e29190610caa565b6003820160006101000a81549060ff02191690556003820160016101000a81549073ffffffffffffffffffffffffffffffffffffffff021916905550507f342ff6c61d8ac95b75821982d3bac415a2f2e4f121b1fccda188bd67d31324b7813360405161055092919061142c565b60405180910390a150565b610563610b57565b61056d6000610bde565b565b6060600060025467ffffffffffffffff81111561058f5761058e610de0565b5b6040519080825280602002602001820160405280156105c857816020015b6105b5610cea565b8152602001906001900390816105ad5790505b5090506000600190505b60025481116107d557600160008281526020019081526020016000206040518060a00160405290816000820154815260200160018201805461061390611484565b80601f016020809104026020016040519081016040528092919081815260200182805461063f90611484565b801561068c5780601f106106615761010080835404028352916020019161068c565b820191906000526020600020905b81548152906001019060200180831161066f57829003601f168201915b505050505081526020016002820180546106a590611484565b80601f01602080910402602001604051908101604052809291908181526020018280546106d190611484565b801561071e5780601f106106f35761010080835404028352916020019161071e565b820191906000526020600020905b81548152906001019060200180831161070157829003601f168201915b505050505081526020016003820160009054906101000a900460ff161515151581526020016003820160019054906101000a900473ffffffffffffffffffffffffffffffffffffffff1673ffffffffffffffffffffffffffffffffffffffff1673ffffffffffffffffffffffffffffffffffffffff1681525050826001836107a691906117b5565b815181106107b7576107b66117e9565b5b602002602001018190525080806107cd90611818565b9150506105d2565b508091505090565b600160205280600052604060002060009150905080600001549080600101805461080690611484565b80601f016020809104026020016040519081016040528092919081815260200182805461083290611484565b801561087f5780601f106108545761010080835404028352916020019161087f565b820191906000526020600020905b81548152906001019060200180831161086257829003601f168201915b50505050509080600201805461089490611484565b80601f01602080910402602001604051908101604052809291908181526020018280546108c090611484565b801561090d5780601f106108e25761010080835404028352916020019161090d565b820191906000526020600020905b8154815290600101906020018083116108f057829003601f168201915b5050505050908060030160009054906101000a900460ff16908060030160019054906101000a900473ffffffffffffffffffffffffffffffffffffffff16905085565b60008060009054906101000a900473ffffffffffffffffffffffffffffffffffffffff16905090565b6002600081548092919061098c90611818565b91905055506040518060a0016040528060025481526020018381526020018281526020016000151581526020013373ffffffffffffffffffffffffffffffffffffffff16815250600160006002548152602001908152602001600020600082015181600001556020820151816001019081610a079190611661565b506040820151816002019081610a1d9190611661565b5060608201518160030160006101000a81548160ff02191690831515021790555060808201518160030160016101000a81548173ffffffffffffffffffffffffffffffffffffffff021916908373ffffffffffffffffffffffffffffffffffffffff1602179055509050507f3c9075a5d6407a1e9fce25049b1aca5457711982cad21bba2bc6dca30b598d6c600254838333604051610abf9493929190611733565b60405180910390a15050565b60025481565b610ad9610b57565b600073ffffffffffffffffffffffffffffffffffffffff168173ffffffffffffffffffffffffffffffffffffffff1603610b4b5760006040517f1e4fbdf7000000000000000000000000000000000000000000000000000000008152600401610b4291906112b9565b60405180910390fd5b610b5481610bde565b50565b610b5f610ca2565b73ffffffffffffffffffffffffffffffffffffffff16610b7d610950565b73ffffffffffffffffffffffffffffffffffffffff1614610bdc57610ba0610ca2565b6040517f118cdaa7000000000000000000000000000000000000000000000000000000008152600401610bd391906112b9565b60405180910390fd5b565b60008060009054906101000a900473ffffffffffffffffffffffffffffffffffffffff169050816000806101000a81548173ffffffffffffffffffffffffffffffffffffffff021916908373ffffffffffffffffffffffffffffffffffffffff1602179055508173ffffffffffffffffffffffffffffffffffffffff168173ffffffffffffffffffffffffffffffffffffffff167f8be0079c531659141344cd1fd0a4f28419497f9722a3daafe3b4186f6b6457e060405160405180910390a35050565b600033905090565b508054610cb690611484565b6000825580601f10610cc85750610ce7565b601f016020900490600052602060002090810190610ce69190610d31565b5b50565b6040518060a00160405280600081526020016060815260200160608152602001600015158152602001600073ffffffffffffffffffffffffffffffffffffffff1681525090565b5b80821115610d4a576000816000905550600101610d32565b5090565b6000604051905090565b600080fd5b600080fd5b6000819050919050565b610d7581610d62565b8114610d8057600080fd5b50565b600081359050610d9281610d6c565b92915050565b600060208284031215610dae57610dad610d58565b5b6000610dbc84828501610d83565b91505092915050565b600080fd5b600080fd5b6000601f19601f8301169050919050565b7f4e487b7100000000000000000000000000000000000000000000000000000000600052604160045260246000fd5b610e1882610dcf565b810181811067ffffffffffffffff82111715610e3757610e36610de0565b5b80604052505050565b6000610e4a610d4e565b9050610e568282610e0f565b919050565b600067ffffffffffffffff821115610e7657610e75610de0565b5b610e7f82610dcf565b9050602081019050919050565b82818337600083830152505050565b6000610eae610ea984610e5b565b610e40565b905082815260208101848484011115610eca57610ec9610dca565b5b610ed5848285610e8c565b509392505050565b600082601f830112610ef257610ef1610dc5565b5b8135610f02848260208601610e9b565b91505092915050565b600080600060608486031215610f2457610f23610d58565b5b6000610f3286828701610d83565b935050602084013567ffffffffffffffff811115610f5357610f52610d5d565b5b610f5f86828701610edd565b925050604084013567ffffffffffffffff811115610f8057610f7f610d5d565b5b610f8c86828701610edd565b9150509250925092565b600081519050919050565b600082825260208201905092915050565b6000819050602082019050919050565b610fcb81610d62565b82525050565b600081519050919050565b600082825260208201905092915050565b60005b8381101561100b578082015181840152602081019050610ff0565b60008484015250505050565b600061102282610fd1565b61102c8185610fdc565b935061103c818560208601610fed565b61104581610dcf565b840191505092915050565b60008115159050919050565b61106581611050565b82525050565b600073ffffffffffffffffffffffffffffffffffffffff82169050919050565b60006110968261106b565b9050919050565b6110a68161108b565b82525050565b600060a0830160008301516110c46000860182610fc2565b50602083015184820360208601526110dc8282611017565b915050604083015184820360408601526110f68282611017565b915050606083015161110b606086018261105c565b50608083015161111e608086018261109d565b508091505092915050565b600061113583836110ac565b905092915050565b6000602082019050919050565b600061115582610f96565b61115f8185610fa1565b93508360208202850161117185610fb2565b8060005b858110156111ad578484038952815161118e8582611129565b94506111998361113d565b925060208a01995050600181019050611175565b50829750879550505050505092915050565b600060208201905081810360008301526111d9818461114a565b905092915050565b6111ea81610d62565b82525050565b600082825260208201905092915050565b600061120c82610fd1565b61121681856111f0565b9350611226818560208601610fed565b61122f81610dcf565b840191505092915050565b61124381611050565b82525050565b6112528161108b565b82525050565b600060a08201905061126d60008301886111e1565b818103602083015261127f8187611201565b905081810360408301526112938186611201565b90506112a2606083018561123a565b6112af6080830184611249565b9695505050505050565b60006020820190506112ce6000830184611249565b92915050565b600080604083850312156112eb576112ea610d58565b5b600083013567ffffffffffffffff81111561130957611308610d5d565b5b61131585828601610edd565b925050602083013567ffffffffffffffff81111561133657611335610d5d565b5b61134285828601610edd565b9150509250929050565b600060208201905061136160008301846111e1565b92915050565b6113708161108b565b811461137b57600080fd5b50565b60008135905061138d81611367565b92915050565b6000602082840312156113a9576113a8610d58565b5b60006113b78482850161137e565b91505092915050565b7f4e6f7420746865207461736b206f776e65720000000000000000000000000000600082015250565b60006113f66012836111f0565b9150611401826113c0565b602082019050919050565b60006020820190508181036000830152611425816113e9565b9050919050565b600060408201905061144160008301856111e1565b61144e6020830184611249565b9392505050565b7f4e487b7100000000000000000000000000000000000000000000000000000000600052602260045260246000fd5b6000600282049050600182168061149c57607f821691505b6020821081036114af576114ae611455565b5b50919050565b60008190508160005260206000209050919050565b60006020601f8301049050919050565b600082821b905092915050565b6000600883026115177fffffffffffffffffffffffffffffffffffffffffffffffffffffffffffffffff826114da565b61152186836114da565b95508019841693508086168417925050509392505050565b6000819050919050565b600061155e61155961155484610d62565b611539565b610d62565b9050919050565b6000819050919050565b61157883611543565b61158c61158482611565565b8484546114e7565b825550505050565b600090565b6115a1611594565b6115ac81848461156f565b505050565b5b818110156115d0576115c5600082611599565b6001810190506115b2565b5050565b601f821115611615576115e6816114b5565b6115ef846114ca565b810160208510156115fe578190505b61161261160a856114ca565b8301826115b1565b50505b505050565b600082821c905092915050565b60006116386000198460080261161a565b1980831691505092915050565b60006116518383611627565b9150826002028217905092915050565b61166a82610fd1565b67ffffffffffffffff81111561168357611682610de0565b5b61168d8254611484565b6116988282856115d4565b600060209050601f8311600181146116cb57600084156116b9578287015190505b6116c38582611645565b86555061172b565b601f1984166116d9866114b5565b60005b82811015611701578489015182556001820191506020850194506020810190506116dc565b8683101561171e578489015161171a601f891682611627565b8355505b6001600288020188555050505b505050505050565b600060808201905061174860008301876111e1565b818103602083015261175a8186611201565b9050818103604083015261176e8185611201565b905061177d6060830184611249565b95945050505050565b7f4e487b7100000000000000000000000000000000000000000000000000000000600052601160045260246000fd5b60006117c082610d62565b91506117cb83610d62565b92508282039050818111156117e3576117e2611786565b5b92915050565b7f4e487b7100000000000000000000000000000000000000000000000000000000600052603260045260246000fd5b600061182382610d62565b91507fffffffffffffffffffffffffffffffffffffffffffffffffffffffffffffffff820361185557611854611786565b5b60018201905091905056fea26469706673582212202b6b5b01936a3d5e0e6e358f6c3847167db9a6cec81c12a6a2ad95bd605efd2c64736f6c63430008140033",
  "linkReferences": {},
  "deployedLinkReferences": {}
}